S00E00007466742E76312E73726563F3
S11300000C9444000C9461000C9461000C94610005
S11300100C9405070C9461000C9461000C9461002D
S11300200C9461000C9461000C9461000C946100C8
S11300300C9461000C9461000C9461000C946100B8
S11300400C9461000C9461000C9461000C946100A8
S11300500C9461000C9461000C9461000C94610098
S11300600C9461000C946100BC04C404CC04D4045A
S1130070DC04E404EC04F404FC0404050C05140599
S11300801C05260530053A0511241FBECFEFD8E024
S1130090DEBFCDBF12E0A0E0B1E0E8E7FFE102C0BF
S11300A005900D92A635B107D9F722E0A6E5B2E096
S11300B001C01D92A136B207E1F70E948A050C9493
S11300C0BA0F0C9400000F931F93CF93DF93D82F94
S11300D0C62F142F052F61E08AE20E94630F60E0AF
S11300E080E00E94630F60E08D2F0E94630F60E048
S11300F080E00E94630F60E08D2F0E94630F61E037
S11301008BE20E94630F60E080E00E94630F60E076
S11301108C2F0E94630F60E080E00E94630F60E018
S11301208C2F0E94630F61E08CE20E94630F60E0F9
S1130130802F0E94630F60E0812FDF91CF911F9188
S11301400F910C94630F0F932C7F98E0299F9001DB
S11301501124069506950695202B487FF901F42B6A
S1130160AF0170E090E00F910C9463002F923F92E6
S11301704F925F926F927F928F929F92AF92BF92B3
S1130180CF92DF92EF92FF920F931F93CF93DF935F
S113019000D000D0CDB7DEB79C838B837B016A018E
S11301A058018901061B170B17FF03C01195019510
S11301B0110946018B819C81881A990A97FE03C014
S11301C0919481949108801691065CF49C2D8D2D58
S11301D06901292F382F9B818C81FC82EB82E92EC7
S11301E0F82E8B819C81C816D9065CF49E2D8F2D28
S11301F07901292F382F9B818C81DC82CB82C92EF7
S1130200D82E16018B819C81281A390A29014E188F
S11302105F0857FE03C0519441945108310137FEE1
S113022003C09FEF691A790A75946794E216F3067E
S11302301CF08FEF9FEF02C081E090E09A838983E6
S11302408B819C81C816D906ECF0A5018016910615
S113025024F46B817C81C70103C0B7018B819C812D
S11302600E9463006418750877FE06C089819A812C
S1130270E80EF91E620C731C8B819C8101969C8391
S11302808B83DECF0F900F900F900F90DF91CF9163
S11302901F910F91FF90EF90DF90CF90BF90AF90A0
S11302A09F908F907F906F905F904F903F902F9092
S11302B008950F931F93460F571F41505109890109
S11302C09A01AC010E94B6001F910F910895AF925C
S11302D0BF92CF92DF92EF92FF920F931F93CF932F
S11302E0DF936B015901EC017C01E40EF51ECE1580
S11302F0DF0544F49801A501B601CE010E9459011D
S11303002196F5CFDF91CF911F910F91FF90EF9040
S1130310DF90CF90BF90AF9008950F931F938C01FF
S113032020E830E040EA50E060E070E080E090E0F7
S11303300E9467011F910F9108952F923F924F924F
S11303405F926F927F928F929F92AF92BF92CF9261
S1130350DF92EF92FF920F931F93CF93DF9300D01E
S113036000D000D0CDB7DEB77C016B015E834D8336
S1130370890181E090E03C01641A750ACA019195F3
S1130380819591099C01220F331F3C832B83BA0171
S11303906C0D7D1DA801C7010E946300B6018D810B
S11303A09E81681B790BA801C7010E946300A80104
S11303B0B6018D819E818E0D9F1D0E946300A80150
S11303C0B601C7012D813E81821B930B0E946300FD
S11303D0A12CB12C81E090E09A8389838D819E8148
S11303E0A816B9060CF061C077FC0DC02D813E81C2
S11303F0215031093E832D838B819C8102969C83FD
S11304008B83680E791E9FEFA91AB90A29813A8154
S11304102E5F3F4F3A832983620E731E27014A0CD5
S11304205B1CA8018D809E808C0C9D1CB401C201B4
S11304300E94630017012A183B08A801B401C101F6
S11304400E946300A80146018D819E81881A990A41
S1130450B401C2010E946300A801B401C1010E9459
S1130460630045018C0C9D1CA801B4014D805E8085
S11304704E0C5F1CC2010E946300A801B401170165
S11304802D813E81221A330AC1010E946300460174
S11304908A189B08A801B401C2010E946300A80144
S11304A0B401C1010E94630099CF26960FB6F89457
S11304B0DEBF0FBECDBFDF91CF911F910F91FF9093
S11304C0EF90DF90CF90BF90AF909F908F907F90F0
S11304D06F905F904F903F902F900895549A5C9A3C
S11304E02FEF89E698E1215080409040E1F700C069
S11304F000005C982FEF89E698E1215080409040FD
S1130500E1F700C000005C9A2FEF89E698E12150E2
S113051080409040E1F700C0000061E081E00E946B
S1130520630F2FEF82E597E0215080409040E1F780
S113053000C0000061E081E10E94630F2FEF89E6B3
S113054098E1215080409040E1F700C0000061E054
S113055081EB0E94630F60E081E00E94630F60E022
S11305608CE20E94630F60E08DE20E94630F61E001
S113057082EB0E94630F60E081E00E94630F60E001
S11305808CE20E94630F60E08DE20E94630F61E0E1
S113059083EB0E94630F60E081E00E94630F60E0E0
S11305A08CE20E94630F60E08DE20E94630F60E0C2
S11305B081E00E94630F60E08CE20E94630F60E0C0
S11305C08DE20E94630F61E084EB0E94630F60E0A0
S11305D087E00E94630F61E080EC0E94630F60E09B
S11305E082EA0E94630F60E082E00E94630F60E091
S11305F084E80E94630F61E081EC0E94630F60E075
S113060085EC0E94630F61E082EC0E94630F60E05E
S11306108AE00E94630F60E080E00E94630F61E063
S113062083EC0E94630F60E08AE80E94630F60E03D
S11306308AE20E94630F61E084EC0E94630F60E031
S11306408AE80E94630F60E08EEE0E94630F61E00F
S113065085EC0E94630F60E08EE00E94630F61E00E
S113066080E20E94630F61E086E30E94630F60E012
S113067088EC0E94630F61E08AE30E94630F60E0EC
S113068085E00E94630F61E08AE20E94630F60E0EC
S113069080E00E94630F60E080E00E94630F60E0EE
S11306A080E00E94630F60E08FE70E94630F61E0C7
S11306B08BE20E94630F60E080E00E94630F60E0C1
S11306C080E00E94630F60E080E00E94630F60E0BE
S11306D08FE90E94630F61E080EE0E94630F60E087
S11306E082E00E94630F60E08CE10E94630F60E08F
S11306F087E00E94630F60E082E10E94630F60E084
S113070087E30E94630F60E082E30E94630F60E06E
S113071089E20E94630F60E08DE20E94630F60E053
S113072089E20E94630F60E085E20E94630F60E04B
S11307308BE20E94630F60E089E30E94630F60E034
S113074080E00E94630F60E081E00E94630F60E03C
S113075083E00E94630F60E080E10E94630F61E028
S113076081EE0E94630F60E083E00E94630F60E00B
S11307708DE10E94630F60E087E00E94630F60E0F8
S113078086E00E94630F60E08EE20E94630F60E0E7
S11307908CE20E94630F60E089E20E94630F60E0D4
S11307A08DE20E94630F60E08EE20E94630F60E0BE
S11307B08EE20E94630F60E087E30E94630F60E0B3
S11307C08FE30E94630F60E080E00E94630F60E0AB
S11307D080E00E94630F60E082E00E94630F60E0AB
S11307E080E10E94630F61E083E10E94630F8FE365
S11307F09CE90197F1F700C0000061E089E20E94E2
S1130800630F9FEF21EE84E0915020408040E1F798
S113081000C0000061E086E30E94630F60E080ECAA
S11308200E94630F61E086E30E94630F60E080E64C
S11308300C94630FDF92EF92FF920F931F93CF9369
S1130840DF93CDB7DEB7C25ED1400FB6F894DEBFFA
S11308500FBECDBF8FE7D82EAE014F515E4F60EE75
S113086071E0CE0101960E94610D882329F08FEF7B
S11308709FEF0E948D01FFCFCF51DE4F8881998178
S1130880C15ED140892BC1F00E94740FCE01019644
S11308907C0110E0F7010081218142816D2D812FBF
S11308A00E94A3001F5FF3E0EF0EF11C103A91F7D2
S11308B00E94760FDA94D0CFCE51DE4F0FB6F89463
S11308C0DEBF0FBECDBFDF91CF911F910F91FF907F
S11308D0EF90DF9008950F931F93CF93DF93CDB7DD
S11308E0DEB7AA970FB6F894DEBF0FBECDBF8C015A
S11308F081E00030180729F480EE9FEF0E948D01FB
S1130900FFCFCE0101960E94FD0B882329F080E0E1
S113091098EF0E948D01FFCFC8010E94120D882319
S113092029F08FE190E00E948D01FFCF6AE870E02A
S113093080E090E00E94310E81110DC00E941A04E3
S1130940AA960FB6F894DEBF0FBECDBFDF91CF914C
S11309501F910F91089580EE97E00E948D01FFCFC3
S1130960CF93DF93EB018031910508F08DC0FC013A
S1130970EC5CFF4F0C949A0F0E94740F20E038EF48
S1130980AE0160E170E05FC00E94740F20E038EFB8
S1130990AE0160E170E061C00E94740F20E038EFA6
S11309A0AE0160E170E063C00E94740F20E038EF94
S11309B0AE0160E170E065C00E94740F20E038EF82
S11309C0AE0160E370E03FC00E94740F20E038EF96
S11309D0AE0160E370E041C00E94740F20E038EF84
S11309E0AE0160E370E043C00E94740F20E038EF72
S11309F0AE0160E370E045C00E94740F20E038EF60
S1130A00AE0160E570E01FC00E94740F20E038EF73
S1130A10AE0160E570E021C00E94740F20E038EF61
S1130A20AE0160E570E023C00E94740F20E038EF4F
S1130A30AE0160E570E025C00E94740F20E038EF3D
S1130A40AE0160E770E084E190E028C00E94740F7A
S1130A5020E038EFAE0160E770E08CE390E01EC068
S1130A600E94740F20E038EFAE0160E770E084E686
S1130A7090E014C00E94740F20E038EFAE0160E7EC
S1130A8070E08CE890E00AC00E94740F20E038EF18
S1130A904EE150E060E470E080E590E00E949D014A
S1130AA0DF91CF910C94760FCF93DF9341305105B2
S1130AB031F486E091E0DF91CF910C946B04EB016B
S1130AC00E946B046CE070E0CE010E94B0046DE003
S1130AD070E0CE01DF91CF910C94B00487B117B8C8
S1130AE08AB18C7F8AB984B18C7F84B988B18F63D1
S1130AF088B98BB183608BB985B1836085B9ECE625
S1130B00F0E0808181608083E8E6F0E080818260AB
S1130B10808308950E94570F0E946E020E946E0502
S1130B2078940E94740F80E090E00E948D010E94EE
S1130B30760FFFCF319906C0329904C0339902C0B1
S1130B40349B7BC0319906C0329904C0339902C0EA
S1130B50349976C0319906C0329904C0339B02C0DF
S1130B60349B71C0319906C0329904C0339B02C0D2
S1130B7034996CC0319906C0329B04C0339902C0C9
S1130B80349B67C0319906C0329B04C0339902C0BC
S1130B90349962C0319906C0329B04C0339B02C0B1
S1130BA0349B5DC0319906C0329B04C0339B02C0A4
S1130BB0349958C0319B06C0329904C0339902C09D
S1130BC0349B53C0319B06C0329904C0339902C090
S1130BD034994EC0319B06C0329904C0339B02C085
S1130BE0349B49C0319B06C0329904C0339B02C078
S1130BF0349944C0319B06C0329B04C0339902C06F
S1130C00349B3FC0319B06C0329B04C0339902C061
S1130C1034993AC0319B06C0329B04C0339B02C056
S1130C20349B35C0319B36C0329B34C0339B32C0B9
S1130C30349B30C089EC91E0089580E191E00895FF
S1130C408CE191E0089588E291E0089584E391E0D5
S1130C50089580E491E008958CE491E0089588E596
S1130C6091E0089584E691E0089580E791E0089585
S1130C708CE791E0089588E891E0089585E991E092
S1130C80089582EA91E008958FEA91E008958CEB4B
S1130C9091E0089580E091E00895359906C048995F
S1130CA004C0499902C0189B7BC0359906C0489975
S1130CB004C0499902C0189976C0359906C048996C
S1130CC004C0499B02C0189B71C0359906C048995D
S1130CD004C0499B02C018996CC0359906C0489B52
S1130CE004C0499902C0189B67C0359906C0489B47
S1130CF004C0499902C0189962C0359906C0489B3E
S1130D0004C0499B02C0189B5DC0359906C0489B2E
S1130D1004C0499B02C0189958C0359B06C0489925
S1130D2004C0499902C0189B53C0359B06C048991A
S1130D3004C0499902C018994EC0359B06C0489911
S1130D4004C0499B02C0189B49C0359B06C0489902
S1130D5004C0499B02C0189944C0359B06C0489BF7
S1130D6004C0499902C0189B3FC0359B06C0489BEC
S1130D7004C0499902C018993AC0359B06C0489BE3
S1130D8004C0499B02C0189B35C0359B36C0489BA4
S1130D9034C0499B32C0189B30C08FE090E0089566
S1130DA080E090E0089581E090E0089582E090E092
S1130DB0089583E090E0089584E090E0089585E04C
S1130DC090E0089586E090E0089587E090E008952B
S1130DD088E090E0089589E090E008958AE090E04A
S1130DE008958BE090E008958CE090E008958DE004
S1130DF090E008958EE090E0089580E190E00895F9
S1130E0083B18695817090E008951F920F920FB67A
S1130E100F9211242F933F934F935F936F937F937C
S1130E208F939F93AF93BF93EF93FF930E949A0581
S1130E3090935E0280935D020E944D06909360023F
S1130E4080935F020E94000790935C0280935B0290
S1130E5040915B0250915C0260915F02709160026C
S1130E6080915D0290915E020E945405FF91EF9182
S1130E70BF91AF919F918F917F916F915F914F91AE
S1130E803F912F910F900FBE0F901F901895FF92D6
S1130E900F931F93CF93DF93C82FD42F152F062FB3
S1130EA0F72E87FF09C040E050E0BA0187E70E94AF
S1130EB04707823070F5CF772A9A0E946D0F2A98DF
S1130EC00E946D0F60E08C2F0E94630F60E08F2DF5
S1130ED00E94630F60E0802F0E94630F60E0812F07
S1130EE00E94630F60E08D2F0E94630FC03421F0D5
S1130EF0C83421F487E803C085E901C081E060E0DB
S1130F000E94630FCAE00E946D0F87FF02C0C150A8
S1130F10D1F7DF91CF911F910F91FF9008950F9317
S1130F201F93CF93DF93AB01BC01411551056105BC
S1130F30710501F18091580283FD07C089E0440FD7
S1130F40551F661F771F8A95D1F788E50E944707CA
S1130F5081113FC060E08FEF0E94630F60E08EEF6D
S1130F600E94630F80E092E09093570280935602B0
S1130F70C0E030C000915602109157020E3F8FEF2F
S1130F80180739F060E080E00E94630F01501109F6
S1130F90F5CF0E946D0F8F71853029F408E813E1B5
S1130FA0C0E9D1E00AC0C1E010C001151105D9F3B0
S1130FB0CE010197F1F7015011090E946D0F8F3F87
S1130FC0A1F7C1E0012B09F0C0E02A9A0E946D0F3D
S1130FD001C0C1E08C2FDF91CF911F910F91089533
S1130FE0AF92BF92CF92DF92EF92FF920F931F9333
S1130FF0CF93DF9300D000D0CDB7DEB780915802F5
S1131000882339F02A9905C060E070E0CB010E9482
S11310108F070E94570F2A9A1AE00E946D0F1150F1
S1131020E1F740E050E0BA0180E40E9447078130D4
S113103009F067C04AEA51E060E070E088E40E9489
S11310404707813089F58E010F5F1F4F6E0185E0E0
S1131050C80ED11C78010E946D0FF70181937F01A6
S1131060EC15FD05C1F78B81813009F04AC08C81F4
S11310708A3A09F046C020E1E22E27E2F22E30E956
S1131080A32EBB24B39440E050E060E070E489EE0A
S11310900E944707882369F1C5010197F1F7F1E040
S11310A0EF1AF10881F72DC040E050E0BA0189EE53
S11310B00E944707823018F011E001E402C012E0F8
S11310C009EE80E1E82E87E2F82E90E9C92EDD24AE
S11310D0D39440E050E0BA01802F0E944707882350
S11310E051F1C6010197F1F7F1E0EF1AF10889F720
S11310F008C040E050E0BA018AE70E94470788230D
S113110011F010E00CC00E946D0FF80181938F0163
S1131110CE16DF06C1F7898186FD0BC014E010935B
S113112058022A9A0E946D0F81E0112371F080E029
S11311300CC01CE0F4CF40E052E060E070E080E5D9
S11311400E9447078111DDCFEACF0F900F900F90D7
S11311500F90DF91CF911F910F91FF90EF90DF904F
S1131160CF90BF90AF900895CF92DF92EF92FF920D
S11311700F931F93CF93DF936C01790180915802F1
S113118083FD07C089E0440F551F661F771F8A95AA
S1131190D1F781E50E944707882311F0C1E030C0F0
S11311A0C0E4DCE90E946D0F8F3F19F42197D1F759
S11311B0F5CF8E3F99F7C2E0D2E0C01BD10BCE1918
S11311C0DF09E114F10431F00E946D0F81E0E81AA7
S11311D0F108F7CFC114D10449F00E946D0FF60154
S11311E081936F0101501109C1F705C00E946D0F71
S11311F001501109D9F70E946D0F2197E1F7C0E062
S11312002A9A0E946D0F8C2FDF91CF911F910F911D
S1131210FF90EF90DF90CF9008950F931F93E0918C
S11312205902F0915A029B01AC0122503109410943
S1131230510986819781A085B1850297A109B109D9
S1131240281739074A075B0768F4A281B0E00E94B7
S1131250A00F0289138924893589600F711F821FA9
S1131260931F03C060E070E0CB011F910F910895BC
S11312700F931F93E0915902F0915A022081233079
S113128049F4FC014489558960E070E0BA015527AE
S1131290442703C040E050E0BA01FC01828D938DE5
S11312A0A0E0B0E08C019D01042B152B262B372BDD
S11312B0C901B8011F910F9108950F931F93CF9304
S11312C0DF93DC01E0915902F0915A0211961C92CD
S11312D01E9214966D917D918D919C91179761301A
S11312E071058105910561F106811781208531859C
S11312F0601771078207930718F561157105810559
S1131300910539F42081233021F46685778580891D
S11313109189ED01688779878A879B8761157105B3
S11313208105910519F00E940D0904C06685778531
S1131330808991896C877D878E879F8780E001C033
S113134081E0DF91CF911F910F9108954F925F92A9
S11313506F927F92AF92BF92CF92DF92EF92FF9201
S11313600F931F93CF93DF9300D000D0CDB7DEB798
S1131370623071058105910508F4AAC0A090590254
S1131380B0905A02F501C680D780E084F1846C15D0
S11313907D058E059F0508F09BC06B017C01808153
S11313A0823009F452C0833009F46BC0813009F0F3
S11313B08FC02601569447944C0C5D1C92013170E9
S11313C0452C55244694612C712C428553856485A3
S11313D07585440D551D661D771D2F3FF1E03F07B0
S11313E029F002E010E0CE0101961BC001E010E0FC
S11313F02FEF31E0CE0101960E94B408811168C03C
S1131400F50142855385648575854F5F5F4F6F4F46
S11314107F4F440D551D661D771D20E030E0CE0141
S113142002960E94B408811153C089819A81C0FE3A
S113143007C0BC01E4E076956795EA95E1F702C040
S1131440BC017F7080E090E047C096013327220FF3
S1131450331F77276F2D5E2D4D2DF50182859385E2
S1131460A485B585480F591F6A1F7B1F02E010E051
S1131470CE0101960E94B40881112AC069817A8143
S1131480E1CF96012F773327220F331F220F331F0B
S113149097E0F694E794D794C7949A95D1F7F50119
S11314A042855385648575854C0D5D1D6E1D7F1DBC
S11314B004E010E0CE0101960E94B408811108C036
S11314C089819A81AB81BC81BC01CD019F7004C02C
S11314D061E070E080E090E00F900F900F900F902B
S11314E0DF91CF911F910F91FF90EF90DF90CF90FC
S11314F0BF90AF907F906F905F904F900895CF9280
S1131500DF92EF92FF920F931F93CF93DF93EC013F
S1131510088119810F5F1F4F11F483E05BC04C8574
S11315205D856E857F854115510561057105A9F3BA
S1131530C8018F709927892B09F047C0E0905902A0
S1131540F0905A024F5F5F4F6F4F7F4F4C875D871C
S11315506E877F87688579858A859B85F701611504
S113156071058105910531F4848195810817190766
S1131570A0F62BC0228130E0A90141505109980105
S1131580E4E036952795EA95E1F724233523232BC8
S1131590E1F40E94A6096230710581059105C8F045
S11315A0F701C680D780E084F1846C157D058E0533
S11315B09F0508F0B2CF688779878A879B870E9446
S11315C00D096C877D878E879F871983088380E048
S11315D001C081E0DF91CF911F910F91FF90EF90B7
S11315E0DF90CF900895CF92DF92EF92FF920F9306
S11315F01F93CF93DF93EC016A017B0102E010E0BB
S11316002EEF31E00E94B408811126C088819981AF
S113161085359A4A19F526E330E0B701A601CE01D3
S11316200E94B408811107C088819981863491444D
S113163011F480E016C002E010E022E530E0B701CA
S1131640A601CE010E94B40881110AC08881998143
S11316508634914429F4EDCF83E003C082E001C0D5
S113166081E0DF91CF911F910F91FF90EF90DF9078
S1131670CF900895AF92BF92CF92DF92EF92FF92F4
S11316800F931F93CF93DF93EC016B017A01DA017F
S11316908C914F5F5F4F8032C9F38F3209F47A0126
S11316A01C821D821E821F82F7018081803218F005
S11316B020E2A22E56C0CE010E945D09B82ED601AA
S11316C01C928FC080E020E098E031E0320FF701F7
S11316D0E20FF11DE081E13208F04EC0E30EF11C8F
S11316E081E0E13208F080E0FB018387CE010E94B3
S11316F05D09B82E811175C0288139812F70332777
S113170095E0220F331F9A95E1F74C855D856E8530
S11317107F8500E210E0C6010E94B408811155C023
S1131720D6018C91882309F453C01B968C9183FDB8
S113173044C00A811B819601D801B801655F7F4FBF
S11317406A177B07A1F5D8011B969C91911149C09A
S113175084FF3EC0C6010E9438096C837D838E835A
S11317609F836A817B81FB01CB010B968E179F07B8
S113177009F4A8CFA192FACFEF3209F4AFCFEE3239
S113178051F1891708F0AACFE7FF04C0F0E0EA5A44
S1131790FE4FE0812FE92E0F2A3108F4E052AB010D
S11317A0480F511DDA01EC938F5F232F8ECFF9017F
S11317B041919F019D91491719F2CE010E947F0A20
S11317C0882309F499CFB82E0CC0BB24B39409C064
S11317D083E0B82E06C0983009F080CF88E09BE003
S11317E0E4CF8B2DDF91CF911F910F91FF90EF905C
S11317F0DF90CF90BF90AF9008952F923F924F9279
S11318005F926F927F928F929F92AF92BF92CF928C
S1131810DF92EF92FF920F931F93CF93DF93CDB795
S1131820DEB7A4970FB6F894DEBF0FBECDBF1C0180
S113183010925A02109259020E94F00780FDA1C032
S113184040E050E0BA01CE0101960E94F30A8130D3
S1131850F9F400E110E02EEB31E040E050E0BA0191
S1131860CE0101960E94B408882311F081E0C1C022
S11318708D81811102C086E0BCC049845A846B8486
S11318807C84B301A201CE0101960E94F30A03C035
S1131890412C512C3201833049F38111ECCF04E205
S11318A010E02DE030E0B301A201CE0101960E94C8
S11318B0B4088111DBCF2A853B852115310519F048
S11318C040E050E004C0288D398D4A8D5B8DAC8199
S11318D0B0E00E94A00F4B015C014A815B8160E093
S11318E070E0440E551E661E771EF1014286538633
S11318F06486758629812283CD80DE80D582C48268
S11319008F819885009719F0A0E0B0E004C08C891D
S11319109D89AE89BF8934E0D694C7943A95E1F79E
S1131920E12CF12C841B950BA60BB70B8819990994
S1131930AA09BB09BC01CD016C197D098E099F0957
S113194030E040E050E00E94780FDA01C9010296CD
S1131950A11DB11DF10186839783A087B187BA01C8
S1131960A901465F5F40610971094F3F5F4E610500
S11319707105C0F1873F2FEF9207A105B10558F01B
S113198002C082E036C083E0F101808388A199A17E
S1131990AAA1BBA10FC0873F9F40A105B10508F0D4
S11319A06ACF81E0F1018083D501C401840D951DC6
S11319B0A61DB71D86879787A08BB18BC40CD51C39
S11319C0E61CF71CC80CD91CEA1CFB1CF101C28ADA
S11319D0D38AE48AF58A118230925A0220925902FB
S11319E080E007C0873F9F4FA105B10560F682E004
S11319F0D9CFA4960FB6F894DEBF0FBECDBFDF914A
S1131A00CF911F910F91FF90EF90DF90CF90BF90F7
S1131A10AF909F908F907F906F905F904F903F908A
S1131A202F9008950F931F93CF93DF93CDB7DEB715
S1131A30EC970FB6F894DEBF0FBECDBF00915902EC
S1131A4010915A020115110571F1AC01F8011182CE
S1131A50CE01C1969CA38BA3BE016F5F7F4F4097BD
S1131A600E943A0B811122C089818823F1F08C8570
S1131A7084FD1BC0CE0101960E943809F801668FCF
S1131A80778F80A391A38D8D9E8DAF8DB8A1828F0A
S1131A90938FA48FB58F168A178A108E118E81E0CA
S1131AA0818380E003C085E001C083E0EC960FB63B
S1131AB0F894DEBF0FBECDBFDF91CF911F910F9180
S1131AC008954F925F926F927F928F929F92AF92FE
S1131AD0BF92CF92DF92EF92FF920F931F93CF9317
S1131AE0DF934C016B015A01C0915902D0915A0203
S1131AF0FA0111821082209709F49FC0898180FF26
S1131B009EC08A8D9B8DAC8DBD8D4E895F89688DFD
S1131B10798D841B950BA60BB70BA60160E070E0D2
S1131B2084179507A607B70708F46C013401412C04
S1131B3032E0532EC114D10409F47DC08E899F89EB
S1131B40A88DB98DAC01BD01517066277727452B4F
S1131B50462B472BD1F5FA80FA94AC01BD0129E05C
S1131B6076956795579547952A95D1F7F422C1F450
S1131B70892B8A2B8B2B29F46E8D7F8D88A199A1BB
S1131B8006C06AA17BA18CA19DA10E94A609623016
S1131B90710581059105A0F16AA37BA38CA39DA384
S1131BA06AA17BA18CA19DA10E940D0961157105FB
S1131BB08105910529F1DC01CB018F0D911DA11D3A
S1131BC0B11D8EA39FA3A8A7B9A72E893F89317001
S1131BD0C201821B930B76018C159D0508F47C01D0
S1131BE04EA15FA168A579A58114910411F0C301E8
S1131BF002C080E090E087010E94B408882319F0B5
S1131C00198281E01DC08E899F89A88DB98D8E0DA2
S1131C109F1DA11DB11D8E8B9F8BA88FB98F6E0C3C
S1131C207F1CCE18DF08F50180819181E80EF91E32
S1131C30F182E0827FCF80E003C085E001C084E0D0
S1131C40DF91CF911F910F91FF90EF90DF90CF9094
S1131C50BF90AF909F908F907F906F905F904F90C8
S1131C6008954F925F926F927F928F929F92AF925C
S1131C70BF92CF92DF92EF92FF92CF93DF9300D087
S1131C8000D000D0CDB7DEB72091590230915A026E
S1131C903E832D832115310509F4EFC0D901119636
S1131CA02C91119720FFEBC05A96CD90DD90ED90CA
S1131CB0FC905D976C157D058E059F0510F46B01F6
S1131CC07C01ED81FE8146885788608C718C168A70
S1131CD0178A108E118EC114D104E104F10409F4A1
S1131CE0D0C08280912CA12CB12C39E0880C991C95
S1131CF0AA1CBB1C3A95D1F7411451046104710428
S1131D0009F440C0B1E04B1A510861087108C701D9
S1131D10B6016150710981099109A50194010E94DC
S1131D20780F29833A834B835C83C301B201A501F5
S1131D3094010E94780F89819A81AB81BC818217BA
S1131D409307A407B507F0F088279927DC018819C1
S1131D509909AA09BB09482259226A227B22AD812A
S1131D60BE8156964D925D926D927C925997C4189D
S1131D70D508E608F70892966D917D918D919C9116
S1131D80959733C0ED81FE81668D778D80A191A1F9
S1131D9062A373A384A395A328C00E94A6096230FA
S1131DA071058105910538F1ED81FE8146805780EA
S1131DB0608471846415750586059705E0F4ED81EA
S1131DC0FE8162A373A384A395A346885788608C7D
S1131DD0718C480C591C6A1C7B1C468A578A608E7D
S1131DE0718EC818D908EA08FB088C149D04AE0447
S1131DF0BF0498F205C0AD81BE8111961C9218C033
S1131E00ED81FE8186889788A08CB18CC80CD91C82
S1131E10EA1CFB1CC68AD78AE08EF18E0E940D094B
S1131E20611571058105910529F4ED81FE81118209
S1131E3081E028C0AD81BE8112962C9130E0215002
S1131E4031094901330FAA08BB0829E0F694E79445
S1131E50D794C7942A95D1F7C820D920EA20FB202B
S1131E60DC01CB018C0D9D1DAE1DBF1DED81FE81DE
S1131E7086A397A3A0A7B1A704C085E003C084E00C
S1131E8001C080E026960FB6F894DEBF0FBECDBF2A
S1131E90DF91CF91FF90EF90DF90CF90BF90AF9004
S1131EA09F908F907F906F905F904F90089584B132
S1131EB08C6284B9529A2A9A8AB180668AB95D98EA
S1131EC081E58CBD0895662311F05E9801C05E9A89
S1131ED08EBD0DB407FEFDCF08958FEF8EBD0DB4FA
S1131EE007FEFDCF8EB508955D9808955D9A089517
S1131EF0A1E21A2EAA1BBB1BFD010DC0AA1FBB1F0A
S1131F00EE1FFF1FA217B307E407F50720F0A21B7B
S1131F10B30BE40BF50B661F771F881F991F1A94E8
S1131F2069F760957095809590959B01AC01BD0112
S1131F30CF010895EE0FFF1F0590F491E02D099451
S1131F400E94AB0FA59F900DB49F900DA49F800D90
S1131F50911D11240895A29FB001B39FC001A39FB6
S1131F60700D811D1124911DB29F700D811D1124CE
S10B1F70911D0895F894FFCFC0
S1131F786572726F72006572726F722E626D700094
S1131F88696D6167656E302E626D7000696D616799
S1131F98656E312E626D7000696D6167656E322EF3
S1131FA8626D7000696D6167656E332E626D7000D5
S1131FB8696D6167656E342E626D7000696D616765
S1131FC8656E352E626D7000696D6167656E362EBB
S1131FD8626D7000696D6167656E372E626D7000A1
S1131FE8696D6167656E382E626D7000696D616731
S1131FF8656E392E626D7000696D6167656E31308A
S11320082E626D7000696D6167656E31312E626D87
S11320187000696D6167656E31322E626D7000699A
S11320286D6167656E31332E626D7000696D61672D
S1132038656E31342E626D7000696D6167656E314D
S1132048352E626D700080818283848586878889B5
S11320588A8B8C8D8E8F909192939495969798995C
S1132068AD9B8C9DAE9FA021A2A3A4A5A6A7A8A9B9
S1132078AAABACADAEAFB0B1B2B3B4B5B6B7B8B93C
S1132088BABBBCBDBEBFC0C1C2C3C4C5C6C7C8C92C
S1132098CACBCCCDCECFD0D1D2D3D4D5D6D7D8D91C
S11320A8DADBDCDDDEDFC0C1C2C3C4C5C6C7C8C94C
S11320B8CACBCCCDCECFD0D1D2D3D4D5D6F7D8D9DC
S10920C8DADBDCDDDE9F23
S9030000FC
